{
  "_format": "hh-sol-artifact-1",
  "contractName": "CryptoDevsDAO",
  "sourceName": "contracts/CryptoDevsDAO.sol",
  "abi": [
    {
      "inputs": [
        {
          "internalType": "address",
          "name": "_nftMarketplace",
          "type": "address"
        },
        {
          "internalType": "address",
          "name": "_cryptoDevsNFT",
          "type": "address"
        }
      ],
      "stateMutability": "payable",
      "type": "constructor"
    },
    {
      "inputs": [
        {
          "internalType": "address",
          "name": "owner",
          "type": "address"
        }
      ],
      "name": "OwnableInvalidOwner",
      "type": "error"
    },
    {
      "inputs": [
        {
          "internalType": "address",
          "name": "account",
          "type": "address"
        }
      ],
      "name": "OwnableUnauthorizedAccount",
      "type": "error"
    },
    {
      "anonymous": false,
      "inputs": [
        {
          "indexed": true,
          "internalType": "address",
          "name": "previousOwner",
          "type": "address"
        },
        {
          "indexed": true,
          "internalType": "address",
          "name": "newOwner",
          "type": "address"
        }
      ],
      "name": "OwnershipTransferred",
      "type": "event"
    },
    {
      "stateMutability": "payable",
      "type": "fallback"
    },
    {
      "inputs": [
        {
          "internalType": "uint256",
          "name": "_nftTokenId",
          "type": "uint256"
        }
      ],
      "name": "createProposal",
      "outputs": [
        {
          "internalType": "uint256",
          "name": "",
          "type": "uint256"
        }
      ],
      "stateMutability": "nonpayable",
      "type": "function"
    },
    {
      "inputs": [
        {
          "internalType": "uint256",
          "name": "proposalIndex",
          "type": "uint256"
        }
      ],
      "name": "executeProposal",
      "outputs": [],
      "stateMutability": "nonpayable",
      "type": "function"
    },
    {
      "inputs": [],
      "name": "owner",
      "outputs": [
        {
          "internalType": "address",
          "name": "",
          "type": "address"
        }
      ],
      "stateMutability": "view",
      "type": "function"
    },
    {
      "inputs": [],
      "name": "renounceOwnership",
      "outputs": [],
      "stateMutability": "nonpayable",
      "type": "function"
    },
    {
      "inputs": [
        {
          "internalType": "address",
          "name": "newOwner",
          "type": "address"
        }
      ],
      "name": "transferOwnership",
      "outputs": [],
      "stateMutability": "nonpayable",
      "type": "function"
    },
    {
      "inputs": [
        {
          "internalType": "uint256",
          "name": "proposalIndex",
          "type": "uint256"
        },
        {
          "internalType": "enum CryptoDevsDAO.Vote",
          "name": "vote",
          "type": "uint8"
        }
      ],
      "name": "voteOnProposal",
      "outputs": [],
      "stateMutability": "nonpayable",
      "type": "function"
    },
    {
      "inputs": [],
      "name": "withdrawEther",
      "outputs": [],
      "stateMutability": "nonpayable",
      "type": "function"
    },
    {
      "stateMutability": "payable",
      "type": "receive"
    }
  ],
  "bytecode": "0x6080604052604051620018e9380380620018e9833981810160405281019062000029919062000269565b33600073ffffffffffffffffffffffffffffffffffffffff168173ffffffffffffffffffffffffffffffffffffffff16036200009f5760006040517f1e4fbdf7000000000000000000000000000000000000000000000000000000008152600401620000969190620002c1565b60405180910390fd5b620000b0816200013b60201b60201c565b5081600360006101000a81548173ffffffffffffffffffffffffffffffffffffffff021916908373ffffffffffffffffffffffffffffffffffffffff16021790555080600460006101000a81548173ffffffffffffffffffffffffffffffffffffffff021916908373ffffffffffffffffffffffffffffffffffffffff1602179055505050620002de565b60008060009054906101000a900473ffffffffffffffffffffffffffffffffffffffff169050816000806101000a81548173ffffffffffffffffffffffffffffffffffffffff021916908373ffffffffffffffffffffffffffffffffffffffff1602179055508173ffffffffffffffffffffffffffffffffffffffff168173ffffffffffffffffffffffffffffffffffffffff167f8be0079c531659141344cd1fd0a4f28419497f9722a3daafe3b4186f6b6457e060405160405180910390a35050565b600080fd5b600073ffffffffffffffffffffffffffffffffffffffff82169050919050565b6000620002318262000204565b9050919050565b620002438162000224565b81146200024f57600080fd5b50565b600081519050620002638162000238565b92915050565b60008060408385031215620002835762000282620001ff565b5b6000620002938582860162000252565b9250506020620002a68582860162000252565b9150509250929050565b620002bb8162000224565b82525050565b6000602082019050620002d86000830184620002b0565b92915050565b6115fb80620002ee6000396000f3fe6080604052600436106100745760003560e01c80637362377b1161004e5780637362377b146100fa5780638da5cb5b14610111578063efafb22e1461013c578063f2fde38b146101655761007b565b80630d61b5191461007d5780635a43dc00146100a6578063715018a6146100e35761007b565b3661007b57005b005b34801561008957600080fd5b506100a4600480360381019061009f9190610e2d565b61018e565b005b3480156100b257600080fd5b506100cd60048036038101906100c89190610e2d565b6104e5565b6040516100da9190610e69565b60405180910390f35b3480156100ef57600080fd5b506100f8610706565b005b34801561010657600080fd5b5061010f61071a565b005b34801561011d57600080fd5b50610126610821565b6040516101339190610ec5565b60405180910390f35b34801561014857600080fd5b50610163600480360381019061015e9190610f05565b61084a565b005b34801561017157600080fd5b5061018c60048036038101906101879190610f71565b610c19565b005b6000600460009054906101000a900473ffffffffffffffffffffffffffffffffffffffff1673ffffffffffffffffffffffffffffffffffffffff166370a08231336040518263ffffffff1660e01b81526004016101eb9190610ec5565b602060405180830381865afa158015610208573d6000803e3d6000fd5b505050506040513d601f19601f8201168201806040525081019061022c9190610fb3565b1161026c576040517f08c379a00000000000000000000000000000000000000000000000000000000081526004016102639061103d565b60405180910390fd5b8042600160008381526020019081526020016000206001015411156102c6576040517f08c379a00000000000000000000000000000000000000000000000000000000081526004016102bd906110a9565b60405180910390fd5b600015156001600083815260200190815260200160002060040160009054906101000a900460ff16151514610330576040517f08c379a000000000000000000000000000000000000000000000000000000000815260040161032790611115565b60405180910390fd5b60006001600084815260200190815260200160002090508060030154816002015411156104c3576000600360009054906101000a900473ffffffffffffffffffffffffffffffffffffffff1673ffffffffffffffffffffffffffffffffffffffff166398d5fdca6040518163ffffffff1660e01b8152600401602060405180830381865afa1580156103c6573d6000803e3d6000fd5b505050506040513d601f19601f820116820180604052508101906103ea9190610fb3565b90508047101561042f576040517f08c379a000000000000000000000000000000000000000000000000000000000815260040161042690611181565b60405180910390fd5b600360009054906101000a900473ffffffffffffffffffffffffffffffffffffffff1673ffffffffffffffffffffffffffffffffffffffff1663efef39a18284600001546040518363ffffffff1660e01b815260040161048f9190610e69565b6000604051808303818588803b1580156104a857600080fd5b505af11580156104bc573d6000803e3d6000fd5b5050505050505b60018160040160006101000a81548160ff021916908315150217905550505050565b600080600460009054906101000a900473ffffffffffffffffffffffffffffffffffffffff1673ffffffffffffffffffffffffffffffffffffffff166370a08231336040518263ffffffff1660e01b81526004016105439190610ec5565b602060405180830381865afa158015610560573d6000803e3d6000fd5b505050506040513d601f19601f820116820180604052508101906105849190610fb3565b116105c4576040517f08c379a00000000000000000000000000000000000000000000000000000000081526004016105bb9061103d565b60405180910390fd5b600360009054906101000a900473ffffffffffffffffffffffffffffffffffffffff1673ffffffffffffffffffffffffffffffffffffffff166396e494e8836040518263ffffffff1660e01b815260040161061f9190610e69565b602060405180830381865afa15801561063c573d6000803e3d6000fd5b505050506040513d601f19601f8201168201806040525081019061066091906111d9565b61069f576040517f08c379a000000000000000000000000000000000000000000000000000000000815260040161069690611252565b60405180910390fd5b6000600160006002548152602001908152602001600020905082816000018190555061012c426106cf91906112a1565b8160010181905550600260008154809291906106ea906112d5565b919050555060016002546106fe919061131d565b915050919050565b61070e610c9f565b6107186000610d26565b565b610722610c9f565b60004790506000811161076a576040517f08c379a0000000000000000000000000000000000000000000000000000000008152600401610761906113c3565b60405180910390fd5b6000610774610821565b73ffffffffffffffffffffffffffffffffffffffff168260405161079790611414565b60006040518083038185875af1925050503d80600081146107d4576040519150601f19603f3d011682016040523d82523d6000602084013e6107d9565b606091505b505090508061081d576040517f08c379a000000000000000000000000000000000000000000000000000000000815260040161081490611475565b60405180910390fd5b5050565b60008060009054906101000a900473ffffffffffffffffffffffffffffffffffffffff16905090565b6000600460009054906101000a900473ffffffffffffffffffffffffffffffffffffffff1673ffffffffffffffffffffffffffffffffffffffff166370a08231336040518263ffffffff1660e01b81526004016108a79190610ec5565b602060405180830381865afa1580156108c4573d6000803e3d6000fd5b505050506040513d601f19601f820116820180604052508101906108e89190610fb3565b11610928576040517f08c379a000000000000000000000000000000000000000000000000000000000815260040161091f9061103d565b60405180910390fd5b8142600160008381526020019081526020016000206001015411610981576040517f08c379a0000000000000000000000000000000000000000000000000000000008152600401610978906114e1565b60405180910390fd5b60006001600085815260200190815260200160002090506000600460009054906101000a900473ffffffffffffffffffffffffffffffffffffffff1673ffffffffffffffffffffffffffffffffffffffff166370a08231336040518263ffffffff1660e01b81526004016109f59190610ec5565b602060405180830381865afa158015610a12573d6000803e3d6000fd5b505050506040513d601f19601f82011682018060405250810190610a369190610fb3565b90506000805b82811015610b65576000600460009054906101000a900473ffffffffffffffffffffffffffffffffffffffff1673ffffffffffffffffffffffffffffffffffffffff16632f745c5933846040518363ffffffff1660e01b8152600401610aa3929190611501565b602060405180830381865afa158015610ac0573d6000803e3d6000fd5b505050506040513d601f19601f82011682018060405250810190610ae49190610fb3565b90506000151585600501600083815260200190815260200160002060009054906101000a900460ff16151503610b51578280610b1f906112d5565b935050600185600501600083815260200190815260200160002060006101000a81548160ff0219169083151502179055505b508080610b5d906112d5565b915050610a3c565b5060008111610ba9576040517f08c379a0000000000000000000000000000000000000000000000000000000008152600401610ba090611576565b60405180910390fd5b60006001811115610bbd57610bbc611596565b5b856001811115610bd057610bcf611596565b5b03610bf55780836002016000828254610be991906112a1565b92505081905550610c11565b80836003016000828254610c0991906112a1565b925050819055505b505050505050565b610c21610c9f565b600073ffffffffffffffffffffffffffffffffffffffff168173ffffffffffffffffffffffffffffffffffffffff1603610c935760006040517f1e4fbdf7000000000000000000000000000000000000000000000000000000008152600401610c8a9190610ec5565b60405180910390fd5b610c9c81610d26565b50565b610ca7610dea565b73ffffffffffffffffffffffffffffffffffffffff16610cc5610821565b73ffffffffffffffffffffffffffffffffffffffff1614610d2457610ce8610dea565b6040517f118cdaa7000000000000000000000000000000000000000000000000000000008152600401610d1b9190610ec5565b60405180910390fd5b565b60008060009054906101000a900473ffffffffffffffffffffffffffffffffffffffff169050816000806101000a81548173ffffffffffffffffffffffffffffffffffffffff021916908373ffffffffffffffffffffffffffffffffffffffff1602179055508173ffffffffffffffffffffffffffffffffffffffff168173ffffffffffffffffffffffffffffffffffffffff167f8be0079c531659141344cd1fd0a4f28419497f9722a3daafe3b4186f6b6457e060405160405180910390a35050565b600033905090565b600080fd5b6000819050919050565b610e0a81610df7565b8114610e1557600080fd5b50565b600081359050610e2781610e01565b92915050565b600060208284031215610e4357610e42610df2565b5b6000610e5184828501610e18565b91505092915050565b610e6381610df7565b82525050565b6000602082019050610e7e6000830184610e5a565b92915050565b600073ffffffffffffffffffffffffffffffffffffffff82169050919050565b6000610eaf82610e84565b9050919050565b610ebf81610ea4565b82525050565b6000602082019050610eda6000830184610eb6565b92915050565b60028110610eed57600080fd5b50565b600081359050610eff81610ee0565b92915050565b60008060408385031215610f1c57610f1b610df2565b5b6000610f2a85828601610e18565b9250506020610f3b85828601610ef0565b9150509250929050565b610f4e81610ea4565b8114610f5957600080fd5b50565b600081359050610f6b81610f45565b92915050565b600060208284031215610f8757610f86610df2565b5b6000610f9584828501610f5c565b91505092915050565b600081519050610fad81610e01565b92915050565b600060208284031215610fc957610fc8610df2565b5b6000610fd784828501610f9e565b91505092915050565b600082825260208201905092915050565b7f4e4f545f415f44414f5f4d454d42455200000000000000000000000000000000600082015250565b6000611027601083610fe0565b915061103282610ff1565b602082019050919050565b600060208201905081810360008301526110568161101a565b9050919050565b7f444541444c494e455f4e4f545f45584345454445440000000000000000000000600082015250565b6000611093601583610fe0565b915061109e8261105d565b602082019050919050565b600060208201905081810360008301526110c281611086565b9050919050565b7f50524f504f53414c5f414c52454144595f455845435554454400000000000000600082015250565b60006110ff601983610fe0565b915061110a826110c9565b602082019050919050565b6000602082019050818103600083015261112e816110f2565b9050919050565b7f4e4f545f454e4f5547485f46554e445300000000000000000000000000000000600082015250565b600061116b601083610fe0565b915061117682611135565b602082019050919050565b6000602082019050818103600083015261119a8161115e565b9050919050565b60008115159050919050565b6111b6816111a1565b81146111c157600080fd5b50565b6000815190506111d3816111ad565b92915050565b6000602082840312156111ef576111ee610df2565b5b60006111fd848285016111c4565b91505092915050565b7f4e46545f4e4f545f464f525f53414c4500000000000000000000000000000000600082015250565b600061123c601083610fe0565b915061124782611206565b602082019050919050565b6000602082019050818103600083015261126b8161122f565b9050919050565b7f4e487b7100000000000000000000000000000000000000000000000000000000600052601160045260246000fd5b60006112ac82610df7565b91506112b783610df7565b92508282019050808211156112cf576112ce611272565b5b92915050565b60006112e082610df7565b91507fffffffffffffffffffffffffffffffffffffffffffffffffffffffffffffffff820361131257611311611272565b5b600182019050919050565b600061132882610df7565b915061133383610df7565b925082820390508181111561134b5761134a611272565b5b92915050565b7f4e6f7468696e6720746f2077697468647261772c20636f6e747261637420626160008201527f6c616e636520656d707479000000000000000000000000000000000000000000602082015250565b60006113ad602b83610fe0565b91506113b882611351565b604082019050919050565b600060208201905081810360008301526113dc816113a0565b9050919050565b600081905092915050565b50565b60006113fe6000836113e3565b9150611409826113ee565b600082019050919050565b600061141f826113f1565b9150819050919050565b7f4641494c45445f544f5f57495448445241575f45544845520000000000000000600082015250565b600061145f601883610fe0565b915061146a82611429565b602082019050919050565b6000602082019050818103600083015261148e81611452565b9050919050565b7f444541444c494e455f4558434545444544000000000000000000000000000000600082015250565b60006114cb601183610fe0565b91506114d682611495565b602082019050919050565b600060208201905081810360008301526114fa816114be565b9050919050565b60006040820190506115166000830185610eb6565b6115236020830184610e5a565b9392505050565b7f414c52454144595f564f54454400000000000000000000000000000000000000600082015250565b6000611560600d83610fe0565b915061156b8261152a565b602082019050919050565b6000602082019050818103600083015261158f81611553565b9050919050565b7f4e487b7100000000000000000000000000000000000000000000000000000000600052602160045260246000fdfea26469706673582212205ea798777b7c39e47399d77e09d8454efcd16a26f00f94633aad9dbf1ad7c9f164736f6c63430008140033",
  "linkReferences": {},
  "deployedLinkReferences": {}
}